{
  "transactions": [
    {
      "hash": "0x731a14f305332275d1078d0e9b6d068ee5f37697ef8b9576ec6fe826b37cf91b",
      "transactionType": "CALL",
      "contractName": "ShadowSettlement",
      "contractAddress": "0x9a0412ceac30bdb5488a987c1f09f25b818d0b91",
      "function": "setTokenWhitelist(address,bool)",
      "arguments": [
        "0xEeeeeEeeeEeEeeEeEeEeeEEEeeeeEeeeeeeeEEeE",
        "true"
      ],
      "transaction": {
        "from": "0x2af423ba8cd60fe7ca0bbcc4cf1f4e6a7e576039",
        "to": "0x9a0412ceac30bdb5488a987c1f09f25b818d0b91",
        "gas": "0x10229",
        "value": "0x0",
        "input": "0xc9bcc97e000000000000000000000000eeeeeeeeeeeeeeeeeeeeeeeeeeeeeeeeeeeeeeee0000000000000000000000000000000000000000000000000000000000000001",
        "nonce": "0x77",
        "chainId": "0xaa36a7"
      },
      "additionalContracts": [],
      "isFixedGasLimit": false
    },
    {
      "hash": "0x58cf4f2c516dd74050df97aad8b01c868ce87c24a89a83773513846755f7738b",
      "transactionType": "CALL",
      "contractName": "ShadowSettlement",
      "contractAddress": "0x9a0412ceac30bdb5488a987c1f09f25b818d0b91",
      "function": "setTokenWhitelist(address,bool)",
      "arguments": [
        "0x28650373758d75a8fF0B22587F111e47BAC34e21",
        "true"
      ],
      "transaction": {
        "from": "0x2af423ba8cd60fe7ca0bbcc4cf1f4e6a7e576039",
        "to": "0x9a0412ceac30bdb5488a987c1f09f25b818d0b91",
        "gas": "0x10229",
        "value": "0x0",
        "input": "0xc9bcc97e00000000000000000000000028650373758d75a8ff0b22587f111e47bac34e210000000000000000000000000000000000000000000000000000000000000001",
        "nonce": "0x78",
        "chainId": "0xaa36a7"
      },
      "additionalContracts": [],
      "isFixedGasLimit": false
    },
    {
      "hash": "0xe08ce7d9781e8347408fb254ccabc6e84f0fe8e8426c2a5d38a01a63f8ebe499",
      "transactionType": "CALL",
      "contractName": "ShadowSettlement",
      "contractAddress": "0x9a0412ceac30bdb5488a987c1f09f25b818d0b91",
      "function": "setTokenWhitelist(address,bool)",
      "arguments": [
        "0x89F4f0e13997Ca27cEB963DEE291C607e4E59923",
        "true"
      ],
      "transaction": {
        "from": "0x2af423ba8cd60fe7ca0bbcc4cf1f4e6a7e576039",
        "to": "0x9a0412ceac30bdb5488a987c1f09f25b818d0b91",
        "gas": "0x10229",
        "value": "0x0",
        "input": "0xc9bcc97e00000000000000000000000089f4f0e13997ca27ceb963dee291c607e4e599230000000000000000000000000000000000000000000000000000000000000001",
        "nonce": "0x79",
        "chainId": "0xaa36a7"
      },
      "additionalContracts": [],
      "isFixedGasLimit": false
    }
  ],
  "receipts": [
    {
      "status": "0x1",
      "cumulativeGasUsed": "0xf6e34b",
      "logs": [
        {
          "address": "0x9a0412ceac30bdb5488a987c1f09f25b818d0b91",
          "topics": [
            "0x67821d5384bb02aab1ba91a477f89c9966cd30f475b02618bdc58712bca51275",
            "0x000000000000000000000000eeeeeeeeeeeeeeeeeeeeeeeeeeeeeeeeeeeeeeee"
          ],
          "data": "0x0000000000000000000000000000000000000000000000000000000000000001",
          "blockHash": "0x390ab4e262ca0fe4bd23dd3525a3ceb2924f85cc7855d481be05d485f43e6710",
          "blockNumber": "0x9c5f73",
          "blockTimestamp": "0x698e5378",
          "transactionHash": "0x731a14f305332275d1078d0e9b6d068ee5f37697ef8b9576ec6fe826b37cf91b",
          "transactionIndex": "0x55",
          "logIndex": "0x145",
          "removed": false
        }
      ],
      "logsBloom": "0x00000000010000000000000000000000000000000000000000008000000000000000000000000000400000000000000000000000000000000010000200000000000000000000000010000000000000000000000000000000000000000000000000000000000000000000000000000000000000000000000000000000000000000000000000000000000000000000000000000000000000000000000000000000000000004000000000000000000000000000000000000000000000200000000000000000000000000000000000100000000000000000000000000000000000000000000000000000000000000000000000000000000000000000000000000000",
      "type": "0x2",
      "transactionHash": "0x731a14f305332275d1078d0e9b6d068ee5f37697ef8b9576ec6fe826b37cf91b",
      "transactionIndex": "0x55",
      "blockHash": "0x390ab4e262ca0fe4bd23dd3525a3ceb2924f85cc7855d481be05d485f43e6710",
      "blockNumber": "0x9c5f73",
      "gasUsed": "0xbae8",
      "effectiveGasPrice": "0x15acaa35a",
      "from": "0x2af423ba8cd60fe7ca0bbcc4cf1f4e6a7e576039",
      "to": "0x9a0412ceac30bdb5488a987c1f09f25b818d0b91",
      "contractAddress": null
    },
    {
      "status": "0x1",
      "cumulativeGasUsed": "0xf79e33",
      "logs": [
        {
          "address": "0x9a0412ceac30bdb5488a987c1f09f25b818d0b91",
          "topics": [
            "0x67821d5384bb02aab1ba91a477f89c9966cd30f475b02618bdc58712bca51275",
            "0x00000000000000000000000028650373758d75a8ff0b22587f111e47bac34e21"
          ],
          "data": "0x0000000000000000000000000000000000000000000000000000000000000001",
          "blockHash": "0x390ab4e262ca0fe4bd23dd3525a3ceb2924f85cc7855d481be05d485f43e6710",
          "blockNumber": "0x9c5f73",
          "blockTimestamp": "0x698e5378",
          "transactionHash": "0x58cf4f2c516dd74050df97aad8b01c868ce87c24a89a83773513846755f7738b",
          "transactionIndex": "0x56",
          "logIndex": "0x146",
          "removed": false
        }
      ],
      "logsBloom": "0x00000000010000000000000000004000000000000000000000008000000000000000000000000000400000000000000000000000000000000000000200000000000000000000000018000000000000000000000000000000000000000000000000000000000000000000000000000000000000000000000000000000000000000000000000000000000000000000000000000000000000000000000000000000000000004000000000000000000000000000000000000000000000000000000000000000000000000000000000000000000000000000000000000000000000000000040000000000000000000000000000000000000000000000000000000000",
      "type": "0x2",
      "transactionHash": "0x58cf4f2c516dd74050df97aad8b01c868ce87c24a89a83773513846755f7738b",
      "transactionIndex": "0x56",
      "blockHash": "0x390ab4e262ca0fe4bd23dd3525a3ceb2924f85cc7855d481be05d485f43e6710",
      "blockNumber": "0x9c5f73",
      "gasUsed": "0xbae8",
      "effectiveGasPrice": "0x15acaa35a",
      "from": "0x2af423ba8cd60fe7ca0bbcc4cf1f4e6a7e576039",
      "to": "0x9a0412ceac30bdb5488a987c1f09f25b818d0b91",
      "contractAddress": null
    },
    {
      "status": "0x1",
      "cumulativeGasUsed": "0xf8591b",
      "logs": [
        {
          "address": "0x9a0412ceac30bdb5488a987c1f09f25b818d0b91",
          "topics": [
            "0x67821d5384bb02aab1ba91a477f89c9966cd30f475b02618bdc58712bca51275",
            "0x00000000000000000000000089f4f0e13997ca27ceb963dee291c607e4e59923"
          ],
          "data": "0x0000000000000000000000000000000000000000000000000000000000000001",
          "blockHash": "0x390ab4e262ca0fe4bd23dd3525a3ceb2924f85cc7855d481be05d485f43e6710",
          "blockNumber": "0x9c5f73",
          "blockTimestamp": "0x698e5378",
          "transactionHash": "0xe08ce7d9781e8347408fb254ccabc6e84f0fe8e8426c2a5d38a01a63f8ebe499",
          "transactionIndex": "0x57",
          "logIndex": "0x147",
          "removed": false
        }
      ],
      "logsBloom": "0x00000000010000000000000000000000000000000000000000008000000000080000000040000000400000000000000000000000000000000000000200000000000000000000000010000000000000000000000000000000000000000000000000000000000000000000000000000000000000000000000000000000000000000000000000000000000000000000000000000000000000000000000000000000000000004000000000000000000040000000000000000000000000000000000000000000000000000000000000000000000000000000000000000000000000000000000000000000000000000000000000000000000000000000000000000000",
      "type": "0x2",
      "transactionHash": "0xe08ce7d9781e8347408fb254ccabc6e84f0fe8e8426c2a5d38a01a63f8ebe499",
      "transactionIndex": "0x57",
      "blockHash": "0x390ab4e262ca0fe4bd23dd3525a3ceb2924f85cc7855d481be05d485f43e6710",
      "blockNumber": "0x9c5f73",
      "gasUsed": "0xbae8",
      "effectiveGasPrice": "0x15acaa35a",
      "from": "0x2af423ba8cd60fe7ca0bbcc4cf1f4e6a7e576039",
      "to": "0x9a0412ceac30bdb5488a987c1f09f25b818d0b91",
      "contractAddress": null
    }
  ],
  "libraries": [],
  "pending": [],
  "returns": {},
  "timestamp": 1770935161545,
  "chain": 11155111,
  "commit": "84693ee"
}